{
  "address": "0x497C6aE94ceb5c15dC699c8BBf7933c6e263933b",
  "abi": [
    {
      "inputs": [
        {
          "internalType": "contract IERC20",
          "name": "_token",
          "type": "address"
        }
      ],
      "stateMutability": "nonpayable",
      "type": "constructor"
    },
    {
      "anonymous": false,
      "inputs": [
        {
          "indexed": true,
          "internalType": "address",
          "name": "previousOwner",
          "type": "address"
        },
        {
          "indexed": true,
          "internalType": "address",
          "name": "newOwner",
          "type": "address"
        }
      ],
      "name": "OwnershipTransferred",
      "type": "event"
    },
    {
      "anonymous": false,
      "inputs": [
        {
          "indexed": false,
          "internalType": "address",
          "name": "token",
          "type": "address"
        },
        {
          "indexed": false,
          "internalType": "uint256",
          "name": "amount",
          "type": "uint256"
        }
      ],
      "name": "WithdrawByOwner",
      "type": "event"
    },
    {
      "inputs": [],
      "name": "claimedAmount",
      "outputs": [
        {
          "internalType": "uint256",
          "name": "",
          "type": "uint256"
        }
      ],
      "stateMutability": "view",
      "type": "function"
    },
    {
      "inputs": [],
      "name": "getClaimedAmount",
      "outputs": [
        {
          "internalType": "uint256",
          "name": "",
          "type": "uint256"
        }
      ],
      "stateMutability": "view",
      "type": "function"
    },
    {
      "inputs": [],
      "name": "getLockAmount",
      "outputs": [
        {
          "internalType": "uint256",
          "name": "",
          "type": "uint256"
        }
      ],
      "stateMutability": "view",
      "type": "function"
    },
    {
      "inputs": [],
      "name": "getUnlockedAmount",
      "outputs": [
        {
          "internalType": "uint256",
          "name": "",
          "type": "uint256"
        }
      ],
      "stateMutability": "view",
      "type": "function"
    },
    {
      "inputs": [],
      "name": "owner",
      "outputs": [
        {
          "internalType": "address",
          "name": "",
          "type": "address"
        }
      ],
      "stateMutability": "view",
      "type": "function"
    },
    {
      "inputs": [],
      "name": "period",
      "outputs": [
        {
          "internalType": "uint256",
          "name": "",
          "type": "uint256"
        }
      ],
      "stateMutability": "view",
      "type": "function"
    },
    {
      "inputs": [],
      "name": "renounceOwnership",
      "outputs": [],
      "stateMutability": "nonpayable",
      "type": "function"
    },
    {
      "inputs": [],
      "name": "startTimestamp",
      "outputs": [
        {
          "internalType": "uint256",
          "name": "",
          "type": "uint256"
        }
      ],
      "stateMutability": "view",
      "type": "function"
    },
    {
      "inputs": [],
      "name": "token",
      "outputs": [
        {
          "internalType": "contract IERC20",
          "name": "",
          "type": "address"
        }
      ],
      "stateMutability": "view",
      "type": "function"
    },
    {
      "inputs": [
        {
          "internalType": "address",
          "name": "newOwner",
          "type": "address"
        }
      ],
      "name": "transferOwnership",
      "outputs": [],
      "stateMutability": "nonpayable",
      "type": "function"
    },
    {
      "inputs": [],
      "name": "unlockAmountPeriod",
      "outputs": [
        {
          "internalType": "uint256",
          "name": "",
          "type": "uint256"
        }
      ],
      "stateMutability": "view",
      "type": "function"
    },
    {
      "inputs": [],
      "name": "withdrawAllUnlockToken",
      "outputs": [],
      "stateMutability": "nonpayable",
      "type": "function"
    }
  ],
  "transactionHash": "0x5586ecd08aac0e08527abe36675e40401ca91da9134ee369ec380c342eae34f5",
  "args": [
    "0xabf36a902d031471089b5607d150a9dd35ed8844"
  ],
  "solcInputHash": "394b8cc6f8a1a51a54e0d174cd95beac",
  "bytecode": "0x608060405262278d006004556934f086f3b33b6840000060055534801561002557600080fd5b50604051610d9e380380610d9e833981016040819052610044916100d1565b61005461004f61007d565b610081565b600280546001600160a01b0319166001600160a01b0392909216919091179055426003556100ff565b3390565b600080546001600160a01b038381166001600160a01b0319831681178455604051919092169283917f8be0079c531659141344cd1fd0a4f28419497f9722a3daafe3b4186f6b6457e09190a35050565b6000602082840312156100e2578081fd5b81516001600160a01b03811681146100f8578182fd5b9392505050565b610c908061010e6000396000f3fe608060405234801561001057600080fd5b50600436106100d45760003560e01c80639668ceb811610081578063ef78d4fd1161005b578063ef78d4fd14610146578063f2fde38b1461014e578063fc0c546a14610161576100d4565b80639668ceb81461012e578063d64c34fc14610136578063e6fd48bc1461013e576100d4565b80637ff96d08116100b25780637ff96d081461010957806386210130146101115780638da5cb5b14610119576100d4565b806324ea3626146100d957806348cf2a97146100f7578063715018a614610101575b600080fd5b6100e1610169565b6040516100ee9190610b7d565b60405180910390f35b6100ff610287565b005b6100ff610447565b6100e16104c6565b6100e16104cc565b6101216104d2565b6040516100ee9190610968565b6100e16104ee565b6100e16104f4565b6100e16105be565b6100e16105c4565b6100ff61015c3660046108fc565b6105ca565b610121610696565b600080429050600061019260045461018c600354856106b290919063ffffffff16565b906106fd565b905060006101ab8260055461073f90919063ffffffff16565b905060006101c4600154836106b290919063ffffffff16565b6002546040517f70a0823100000000000000000000000000000000000000000000000000000000815291925060009173ffffffffffffffffffffffffffffffffffffffff909116906370a0823190610220903090600401610968565b60206040518083038186803b15801561023857600080fd5b505afa15801561024c573d6000803e3d6000fd5b505050506040513d601f19601f820116820180604052508101906102709190610950565b90508082111561027e578091505b50935050505090565b61028f61079e565b73ffffffffffffffffffffffffffffffffffffffff166102ad6104d2565b73ffffffffffffffffffffffffffffffffffffffff1614610303576040517f08c379a00000000000000000000000000000000000000000000000000000000081526004016102fa90610b11565b60405180910390fd5b600061030d610169565b905060008111610349576040517f08c379a00000000000000000000000000000000000000000000000000000000081526004016102fa90610b46565b60015461035690826107a2565b60015560025473ffffffffffffffffffffffffffffffffffffffff1663a9059cbb61037f6104d2565b836040518363ffffffff1660e01b815260040161039d929190610989565b602060405180830381600087803b1580156103b757600080fd5b505af11580156103cb573d6000803e3d6000fd5b505050506040513d601f19601f820116820180604052508101906103ef9190610930565b506002546040517f4c7b2d79e2e2f3667524c8cc79a6105ee70bb48325c5b3c5a74b1c946828bdb99161043c9173ffffffffffffffffffffffffffffffffffffffff909116908490610989565b60405180910390a150565b61044f61079e565b73ffffffffffffffffffffffffffffffffffffffff1661046d6104d2565b73ffffffffffffffffffffffffffffffffffffffff16146104ba576040517f08c379a00000000000000000000000000000000000000000000000000000000081526004016102fa90610b11565b6104c460006107eb565b565b60055481565b60015490565b60005473ffffffffffffffffffffffffffffffffffffffff1690565b60015481565b6000806104ff610169565b6002546040517f70a0823100000000000000000000000000000000000000000000000000000000815291925060009173ffffffffffffffffffffffffffffffffffffffff909116906370a082319061055b903090600401610968565b60206040518083038186803b15801561057357600080fd5b505afa158015610587573d6000803e3d6000fd5b505050506040513d601f19601f820116820180604052508101906105ab9190610950565b90506105b781836106b2565b9250505090565b60035481565b60045481565b6105d261079e565b73ffffffffffffffffffffffffffffffffffffffff166105f06104d2565b73ffffffffffffffffffffffffffffffffffffffff161461063d576040517f08c379a00000000000000000000000000000000000000000000000000000000081526004016102fa90610b11565b73ffffffffffffffffffffffffffffffffffffffff811661068a576040517f08c379a00000000000000000000000000000000000000000000000000000000081526004016102fa90610a20565b610693816107eb565b50565b60025473ffffffffffffffffffffffffffffffffffffffff1681565b60006106f483836040518060400160405280601f81526020017f536166654d6174683a207375627472616374696f6e20756e646572666c6f7700815250610860565b90505b92915050565b60006106f483836040518060400160405280601a81526020017f536166654d6174683a206469766973696f6e206279207a65726f0000000000008152506108b4565b60008261074e575060006106f7565b600061075a8385610bd7565b9050826107678583610b9e565b146106f4576040517f08c379a00000000000000000000000000000000000000000000000000000000081526004016102fa90610ab4565b3390565b6000806107af8385610b86565b9050838110156106f4576040517f08c379a00000000000000000000000000000000000000000000000000000000081526004016102fa90610a7d565b6000805473ffffffffffffffffffffffffffffffffffffffff8381167fffffffffffffffffffffffff0000000000000000000000000000000000000000831681178455604051919092169283917f8be0079c531659141344cd1fd0a4f28419497f9722a3daafe3b4186f6b6457e09190a35050565b6000818484111561089e576040517f08c379a00000000000000000000000000000000000000000000000000000000081526004016102fa91906109af565b5060006108ab8486610c14565b95945050505050565b600081836108ef576040517f08c379a00000000000000000000000000000000000000000000000000000000081526004016102fa91906109af565b5060006108ab8486610b9e565b60006020828403121561090d578081fd5b813573ffffffffffffffffffffffffffffffffffffffff811681146106f4578182fd5b600060208284031215610941578081fd5b815180151581146106f4578182fd5b600060208284031215610961578081fd5b5051919050565b73ffffffffffffffffffffffffffffffffffffffff91909116815260200190565b73ffffffffffffffffffffffffffffffffffffffff929092168252602082015260400190565b6000602080835283518082850152825b818110156109db578581018301518582016040015282016109bf565b818111156109ec5783604083870101525b50601f017fffffffffffffffffffffffffffffffffffffffffffffffffffffffffffffffe016929092016040019392505050565b60208082526026908201527f4f776e61626c653a206e6577206f776e657220697320746865207a65726f206160408201527f6464726573730000000000000000000000000000000000000000000000000000606082015260800190565b6020808252601b908201527f536166654d6174683a206164646974696f6e206f766572666c6f770000000000604082015260600190565b60208082526021908201527f536166654d6174683a206d756c7469706c69636174696f6e206f766572666c6f60408201527f7700000000000000000000000000000000000000000000000000000000000000606082015260800190565b6020808252818101527f4f776e61626c653a2063616c6c6572206973206e6f7420746865206f776e6572604082015260600190565b6020808252600e908201527f494e56414c494420414d4f554e54000000000000000000000000000000000000604082015260600190565b90815260200190565b60008219821115610b9957610b99610c2b565b500190565b600082610bd2577f4e487b710000000000000000000000000000000000000000000000000000000081526012600452602481fd5b500490565b6000817fffffffffffffffffffffffffffffffffffffffffffffffffffffffffffffffff0483118215151615610c0f57610c0f610c2b565b500290565b600082821015610c2657610c26610c2b565b500390565b7f4e487b7100000000000000000000000000000000000000000000000000000000600052601160045260246000fdfea2646970667358221220bb9e24eb7d3e87cc0492993660106943deda8e5fcc25ccdecac816d3b6c7133664736f6c63430008000033",
  "devdoc": {
    "kind": "dev",
    "methods": {
      "owner()": {
        "details": "Returns the address of the current owner."
      },
      "renounceOwnership()": {
        "details": "Leaves the contract without owner. It will not be possible to call `onlyOwner` functions anymore. Can only be called by the current owner. NOTE: Renouncing ownership will leave the contract without an owner, thereby removing any functionality that is only available to the owner."
      },
      "transferOwnership(address)": {
        "details": "Transfers ownership of the contract to a new account (`newOwner`). Can only be called by the current owner."
      }
    },
    "version": 1
  },
  "userdoc": {
    "events": {
      "WithdrawByOwner(address,uint256)": {
        "notice": "Emitted when owner withdraw amount;"
      }
    },
    "kind": "user",
    "methods": {},
    "version": 1
  },
  "storageLayout": {
    "storage": [
      {
        "astId": 7,
        "contract": "contracts/TeamTreasury.sol:TeamTreasure",
        "label": "_owner",
        "offset": 0,
        "slot": "0",
        "type": "t_address"
      },
      {
        "astId": 422,
        "contract": "contracts/TeamTreasury.sol:TeamTreasure",
        "label": "claimedAmount",
        "offset": 0,
        "slot": "1",
        "type": "t_uint256"
      },
      {
        "astId": 425,
        "contract": "contracts/TeamTreasury.sol:TeamTreasure",
        "label": "token",
        "offset": 0,
        "slot": "2",
        "type": "t_contract(IERC20)408"
      },
      {
        "astId": 427,
        "contract": "contracts/TeamTreasury.sol:TeamTreasure",
        "label": "startTimestamp",
        "offset": 0,
        "slot": "3",
        "type": "t_uint256"
      },
      {
        "astId": 430,
        "contract": "contracts/TeamTreasury.sol:TeamTreasure",
        "label": "period",
        "offset": 0,
        "slot": "4",
        "type": "t_uint256"
      },
      {
        "astId": 433,
        "contract": "contracts/TeamTreasury.sol:TeamTreasure",
        "label": "unlockAmountPeriod",
        "offset": 0,
        "slot": "5",
        "type": "t_uint256"
      }
    ],
    "types": {
      "t_address": {
        "encoding": "inplace",
        "label": "address",
        "numberOfBytes": "20"
      },
      "t_contract(IERC20)408": {
        "encoding": "inplace",
        "label": "contract IERC20",
        "numberOfBytes": "20"
      },
      "t_uint256": {
        "encoding": "inplace",
        "label": "uint256",
        "numberOfBytes": "32"
      }
    }
  }
}